:08000000803102288731FC2F3A
:100ED2006A3021009900FF30950020008C0121002A
:100EE2008C0122008C0123008C0124008C01FF3034
:100EF20027008C0020008D0121008D0122008D0130
:100F020023008D0124008D01FF3027008D00200079
:100F12008E0121008E0122008E0123008E01240009
:100F22008E01FF3027008E0021009E13FC309E05AB
:100F32001E111D10080087316927873122000E1407
:100F42008230F100DE30890BA42FF10BA42F220096
:100F52000E108230F100DE30890BAD2FF10BAD2F78
:100F620022008E148230F100DE30890BB62FF10B95
:100F7200B62F22008E108230F100DE30890BBF2F97
:100F8200F10BBF2F22000E158230F100DE30890BEB
:100F9200C82FF10BC82F22000E118230F100DE3073
:100FA200890BD12FF10BD12F22008E158230F10047
:100FB200DE30890BDA2FF10BDA2F22008E1182300C
:100FC200F100DE30890BE32FF10BE32F22000E1626
:100FD2008230F100DE30890BEC2FF10BEC2F220076
:100FE2000E128230F100DE30890BF52FF10BF52F56
:0E0FF2009F2F80310228F001200087319C2FB4
:020000040001F9
:04000E00A409FF1C26
:00000001FF
