:08000000803102288731FC2F3A
:100ED6006A3021009900FF30950020008C01210026
:100EE6008C0122008C0123008C0124008C01FF3030
:100EF60027008C0020008D0121008D0122008D012C
:100F060023008D0124008D01FF3027008D00200075
:100F16008E0121008E0122008E0123008E01240005
:100F26008E01FF3027008E0021009E13FC309E05A7
:100F36001E111D10080087316B27873122000E1401
:100F46008230F100DE30890BA62FF10BA62F22008E
:100F56000E108230F100DE30890BAF2FF10BAF2F70
:100F660022008E148230F100DE30890BB82FF10B8F
:100F7600B82F22008E108230F100DE30890BC12F8F
:100F8600F10BC12F22000E158230F100DE30890BE5
:100F9600CA2FF10BCA2F22000E118230F100DE306B
:100FA600890BD32FF10BD32F22008E158230F1003F
:100FB600DE30890BDC2FF10BDC2F22008E11823004
:100FC600F100DE30890BE52FF10BE52F22000E161E
:100FD6008230F100DE30890BEE2FF10BEE2F22006E
:100FE6000E128230F100DE30890BF72FF10BF72F4E
:0A0FF600A12FF001200087319E2F8B
:020000040001F9
:04000E00A409FF1C26
:00000001FF
