:08000000803102288731FC2F3A
:100E86006A3021009900FF30950020008C01210076
:100E96008C0122008C0123008C0124008C01FF3080
:100EA60027008C0020008D0121008D0122008D017C
:100EB60023008D0124008D01FF3027008D002000C6
:100EC6008E0121008E0122008E0123008E01240056
:100ED6008E01FF3027008E0021009E13FC309E05F8
:100EE6001E111D10080087314327873122000E147A
:100EF6000330F1008A30F0005630890B802FF00B5A
:100F0600802FF10B802F22000E100330F1008A3063
:100F1600F0005630890B8D2FF00B8D2FF10B8D2F96
:100F260022008E140330F1008A30F0005630890B0F
:100F36009A2FF00B9A2FF10B9A2F22008E10033066
:100F4600F1008A30F0005630890BA72FF00BA72F3F
:100F5600F10BA72F22000E150330F1008A30F000A6
:100F66005630890BB42FF00BB42FF10BB42F22009F
:100F76000E110330F1008A30F0005630890BC12F74
:100F8600F00BC12FF10BC12F22008E150330F1009B
:100F96008A30F0005630890BCE2FF00BCE2FF10B96
:100FA600CE2F22008E110330F1008A30F000563029
:100FB600890BDB2FF00BDB2FF10BDB2F22000E163C
:100FC6000330F1008A30F0005630890BE82FF00B21
:100FD600E82FF10BE82F22000E120330F1008A30C1
:100FE600F0005630890BF52FF00BF52FF10BF52F8E
:0A0FF600792FF20120008731762FD9
:020000040001F9
:04000E00A409FF1C26
:00000001FF
