:08000000803102288731FC2F3A
:100E82006A3021009900FF30950020008C0121007A
:100E92008C0122008C0123008C0124008C01FF3084
:100EA20027008C0020008D0121008D0122008D0180
:100EB20023008D0124008D01FF3027008D002000CA
:100EC2008E0121008E0122008E0123008E0124005A
:100ED2008E01FF3027008E0021009E13FC309E05FC
:100EE2001E111D10080087314127873122000E1480
:100EF2000330F1008A30F0005630890B7E2FF00B60
:100F02007E2FF10B7E2F22000E100330F1008A306B
:100F1200F0005630890B8B2FF00B8B2FF10B8B2FA0
:100F220022008E140330F1008A30F0005630890B13
:100F3200982FF00B982FF10B982F22008E10033070
:100F4200F1008A30F0005630890BA52FF00BA52F47
:100F5200F10BA52F22000E150330F1008A30F000AC
:100F62005630890BB22FF00BB22FF10BB22F2200A9
:100F72000E110330F1008A30F0005630890BBF2F7A
:100F8200F00BBF2FF10BBF2F22008E150330F100A3
:100F92008A30F0005630890BCC2FF00BCC2FF10B9E
:100FA200CC2F22008E110330F1008A30F00056302F
:100FB200890BD92FF00BD92FF10BD92F22000E1646
:100FC2000330F1008A30F0005630890BE62FF00B27
:100FD200E62FF10BE62F22000E120330F1008A30C9
:100FE200F0005630890BF32FF00BF32FF10BF32F98
:0E0FF200772F80310228F20120008731742F02
:020000040001F9
:04000E00A409FF1C26
:00000001FF
